{
  "contractName": "HelloWorld",
  "abi": [
    {
      "constant": true,
      "inputs": [],
      "name": "messageCount",
      "outputs": [
        {
          "name": "",
          "type": "uint256"
        }
      ],
      "payable": false,
      "stateMutability": "view",
      "type": "function",
      "signature": "0x3dbcc8d1"
    },
    {
      "constant": true,
      "inputs": [],
      "name": "message",
      "outputs": [
        {
          "name": "",
          "type": "string"
        }
      ],
      "payable": false,
      "stateMutability": "view",
      "type": "function",
      "signature": "0xe21f37ce"
    },
    {
      "inputs": [],
      "payable": false,
      "stateMutability": "nonpayable",
      "type": "constructor",
      "signature": "constructor"
    },
    {
      "constant": true,
      "inputs": [],
      "name": "getMsg",
      "outputs": [
        {
          "name": "",
          "type": "string"
        }
      ],
      "payable": false,
      "stateMutability": "view",
      "type": "function",
      "signature": "0xb5fdeb23"
    },
    {
      "constant": false,
      "inputs": [
        {
          "name": "_message",
          "type": "string"
        }
      ],
      "name": "setMsg",
      "outputs": [],
      "payable": false,
      "stateMutability": "nonpayable",
      "type": "function",
      "signature": "0xc4784fd4"
    }
  ],
  "bytecode": "0x60806040526000805534801561001457600080fd5b506100626040805190810160405280600b81526020017f48656c6c6f20576f726c64000000000000000000000000000000000000000000815250610067640100000000026401000000009004565b610126565b806001908051906020019061007d929190610081565b5050565b828054600181600116156101000203166002900490600052602060002090601f016020900481019282601f106100c257805160ff19168380011785556100f0565b828001600101855582156100f0579182015b828111156100ef5782518255916020019190600101906100d4565b5b5090506100fd9190610101565b5090565b61012391905b8082111561011f576000816000905550600101610107565b5090565b90565b6104ab806101356000396000f3fe608060405260043610610062576000357c0100000000000000000000000000000000000000000000000000000000900463ffffffff1680633dbcc8d114610067578063b5fdeb2314610092578063c4784fd414610122578063e21f37ce146101ea575b600080fd5b34801561007357600080fd5b5061007c61027a565b6040518082815260200191505060405180910390f35b34801561009e57600080fd5b506100a7610280565b6040518080602001828103825283818151815260200191508051906020019080838360005b838110156100e75780820151818401526020810190506100cc565b50505050905090810190601f1680156101145780820380516001836020036101000a031916815260200191505b509250505060405180910390f35b34801561012e57600080fd5b506101e86004803603602081101561014557600080fd5b810190808035906020019064010000000081111561016257600080fd5b82018360208201111561017457600080fd5b8035906020019184600183028401116401000000008311171561019657600080fd5b91908080601f016020809104026020016040519081016040528093929190818152602001838380828437600081840152601f19601f820116905080830192505050505050509192919290505050610322565b005b3480156101f657600080fd5b506101ff61033c565b6040518080602001828103825283818151815260200191508051906020019080838360005b8381101561023f578082015181840152602081019050610224565b50505050905090810190601f16801561026c5780820380516001836020036101000a031916815260200191505b509250505060405180910390f35b60005481565b606060018054600181600116156101000203166002900480601f0160208091040260200160405190810160405280929190818152602001828054600181600116156101000203166002900480156103185780601f106102ed57610100808354040283529160200191610318565b820191906000526020600020905b8154815290600101906020018083116102fb57829003601f168201915b5050505050905090565b80600190805190602001906103389291906103da565b5050565b60018054600181600116156101000203166002900480601f0160208091040260200160405190810160405280929190818152602001828054600181600116156101000203166002900480156103d25780601f106103a7576101008083540402835291602001916103d2565b820191906000526020600020905b8154815290600101906020018083116103b557829003601f168201915b505050505081565b828054600181600116156101000203166002900490600052602060002090601f016020900481019282601f1061041b57805160ff1916838001178555610449565b82800160010185558215610449579182015b8281111561044857825182559160200191906001019061042d565b5b509050610456919061045a565b5090565b61047c91905b80821115610478576000816000905550600101610460565b5090565b9056fea165627a7a723058200a0939f04f81b8be213fe2ee0d9f24be783cf428b28e212f163d1edf76b7dceb0029",
  "source": "// SPDX-License-Identifier: MIT\r\n\r\npragma solidity >=0.4.22 <0.9.0;\r\n\r\ncontract HelloWorld {\r\n    uint public messageCount = 0;\r\n    string public message;\r\n\r\n    constructor() public {\r\n        setMsg(\"Hello World\");\r\n    }\r\n\r\n    function getMsg() public view returns(string memory) {\r\n        return message;\r\n    }\r\n\r\n    function setMsg(string memory _message) public {\r\n        message = _message;\r\n    }\r\n\r\n}\r\n",
  "sourcePath": "C:/solidity/hello_world/contracts/HelloWorld.sol",
  "compiler": {
    "name": "solc",
    "version": "0.5.0+commit.1d4f565a.Emscripten.clang"
  },
  "schemaVersion": "3.0.1",
  "updatedAt": "2022-03-08T01:21:08.380Z",
  "devdoc": {
    "methods": {}
  },
  "userdoc": {
    "methods": {}
  }
}